{
  "_format": "hh-sol-artifact-1",
  "contractName": "VotingSystem",
  "sourceName": "contracts/VotingSystem.sol",
  "abi": [
    {
      "anonymous": false,
      "inputs": [
        {
          "indexed": false,
          "internalType": "uint256",
          "name": "electionId",
          "type": "uint256"
        },
        {
          "indexed": false,
          "internalType": "uint256",
          "name": "candidateId",
          "type": "uint256"
        },
        {
          "indexed": false,
          "internalType": "string",
          "name": "name",
          "type": "string"
        }
      ],
      "name": "CandidateAdded",
      "type": "event"
    },
    {
      "anonymous": false,
      "inputs": [
        {
          "indexed": false,
          "internalType": "uint256",
          "name": "electionId",
          "type": "uint256"
        },
        {
          "indexed": false,
          "internalType": "address",
          "name": "creator",
          "type": "address"
        },
        {
          "indexed": false,
          "internalType": "string",
          "name": "title",
          "type": "string"
        }
      ],
      "name": "ElectionCreated",
      "type": "event"
    },
    {
      "anonymous": false,
      "inputs": [
        {
          "indexed": false,
          "internalType": "uint256",
          "name": "electionId",
          "type": "uint256"
        }
      ],
      "name": "ElectionEnded",
      "type": "event"
    },
    {
      "anonymous": false,
      "inputs": [
        {
          "indexed": false,
          "internalType": "uint256",
          "name": "electionId",
          "type": "uint256"
        },
        {
          "indexed": false,
          "internalType": "address",
          "name": "voter",
          "type": "address"
        },
        {
          "indexed": false,
          "internalType": "uint256",
          "name": "candidateId",
          "type": "uint256"
        }
      ],
      "name": "VoteCast",
      "type": "event"
    },
    {
      "inputs": [
        {
          "internalType": "uint256",
          "name": "_electionId",
          "type": "uint256"
        },
        {
          "internalType": "string",
          "name": "_name",
          "type": "string"
        },
        {
          "internalType": "string",
          "name": "_description",
          "type": "string"
        }
      ],
      "name": "addCandidate",
      "outputs": [],
      "stateMutability": "nonpayable",
      "type": "function"
    },
    {
      "inputs": [
        {
          "internalType": "uint256",
          "name": "_electionId",
          "type": "uint256"
        },
        {
          "internalType": "uint256",
          "name": "_candidateId",
          "type": "uint256"
        }
      ],
      "name": "castVote",
      "outputs": [],
      "stateMutability": "nonpayable",
      "type": "function"
    },
    {
      "inputs": [
        {
          "internalType": "string",
          "name": "_title",
          "type": "string"
        },
        {
          "internalType": "string",
          "name": "_description",
          "type": "string"
        },
        {
          "internalType": "uint256",
          "name": "_startTime",
          "type": "uint256"
        },
        {
          "internalType": "uint256",
          "name": "_endTime",
          "type": "uint256"
        }
      ],
      "name": "createElection",
      "outputs": [
        {
          "internalType": "uint256",
          "name": "",
          "type": "uint256"
        }
      ],
      "stateMutability": "nonpayable",
      "type": "function"
    },
    {
      "inputs": [],
      "name": "electionCount",
      "outputs": [
        {
          "internalType": "uint256",
          "name": "",
          "type": "uint256"
        }
      ],
      "stateMutability": "view",
      "type": "function"
    },
    {
      "inputs": [
        {
          "internalType": "uint256",
          "name": "",
          "type": "uint256"
        }
      ],
      "name": "elections",
      "outputs": [
        {
          "internalType": "address",
          "name": "creator",
          "type": "address"
        },
        {
          "internalType": "string",
          "name": "title",
          "type": "string"
        },
        {
          "internalType": "string",
          "name": "description",
          "type": "string"
        },
        {
          "internalType": "uint256",
          "name": "startTime",
          "type": "uint256"
        },
        {
          "internalType": "uint256",
          "name": "endTime",
          "type": "uint256"
        },
        {
          "internalType": "bool",
          "name": "isActive",
          "type": "bool"
        },
        {
          "internalType": "uint256",
          "name": "totalVotes",
          "type": "uint256"
        },
        {
          "internalType": "uint256",
          "name": "candidateCount",
          "type": "uint256"
        }
      ],
      "stateMutability": "view",
      "type": "function"
    },
    {
      "inputs": [
        {
          "internalType": "uint256",
          "name": "_electionId",
          "type": "uint256"
        }
      ],
      "name": "endElection",
      "outputs": [],
      "stateMutability": "nonpayable",
      "type": "function"
    },
    {
      "inputs": [
        {
          "internalType": "uint256",
          "name": "_electionId",
          "type": "uint256"
        },
        {
          "internalType": "uint256",
          "name": "_candidateId",
          "type": "uint256"
        }
      ],
      "name": "getCandidate",
      "outputs": [
        {
          "internalType": "string",
          "name": "name",
          "type": "string"
        },
        {
          "internalType": "string",
          "name": "description",
          "type": "string"
        },
        {
          "internalType": "uint256",
          "name": "voteCount",
          "type": "uint256"
        },
        {
          "internalType": "bool",
          "name": "isRegistered",
          "type": "bool"
        }
      ],
      "stateMutability": "view",
      "type": "function"
    },
    {
      "inputs": [
        {
          "internalType": "uint256",
          "name": "_electionId",
          "type": "uint256"
        }
      ],
      "name": "getElection",
      "outputs": [
        {
          "internalType": "address",
          "name": "creator",
          "type": "address"
        },
        {
          "internalType": "string",
          "name": "title",
          "type": "string"
        },
        {
          "internalType": "string",
          "name": "description",
          "type": "string"
        },
        {
          "internalType": "uint256",
          "name": "startTime",
          "type": "uint256"
        },
        {
          "internalType": "uint256",
          "name": "endTime",
          "type": "uint256"
        },
        {
          "internalType": "bool",
          "name": "isActive",
          "type": "bool"
        },
        {
          "internalType": "uint256",
          "name": "totalVotes",
          "type": "uint256"
        },
        {
          "internalType": "uint256",
          "name": "candidateCount",
          "type": "uint256"
        }
      ],
      "stateMutability": "view",
      "type": "function"
    },
    {
      "inputs": [
        {
          "internalType": "uint256",
          "name": "_electionId",
          "type": "uint256"
        },
        {
          "internalType": "address",
          "name": "_voter",
          "type": "address"
        }
      ],
      "name": "hasVoted",
      "outputs": [
        {
          "internalType": "bool",
          "name": "",
          "type": "bool"
        }
      ],
      "stateMutability": "view",
      "type": "function"
    }
  ],
  "bytecode": "0x6080604052348015600f57600080fd5b50611f258061001f6000396000f3fe608060405234801561001057600080fd5b50600436106100935760003560e01c80637ad36e84116100665780637ad36e841461014e578063997d28301461017e5780639c98bcbb1461019c5780639d710777146101b8578063e6c62efc146101ef57610093565b80632c0a3f891461009857806343859632146100b45780634bd46448146100e45780635e6fef0114610117575b600080fd5b6100b260048036038101906100ad9190611069565b61020b565b005b6100ce60048036038101906100c99190611107565b610597565b6040516100db9190611162565b60405180910390f35b6100fe60048036038101906100f99190611069565b610601565b60405161010e949392919061121c565b60405180910390f35b610131600480360381019061012c919061126f565b61077a565b6040516101459897969594939291906112ab565b60405180910390f35b6101686004803603810190610163919061146c565b6108ff565b604051610175919061150b565b60405180910390f35b610186610a9e565b604051610193919061150b565b60405180910390f35b6101b660048036038101906101b1919061126f565b610aa4565b005b6101d260048036038101906101cd919061126f565b610c4f565b6040516101e69897969594939291906112ab565b60405180910390f35b61020960048036038101906102049190611526565b610df8565b005b816001548110610250576040517f08c379a0000000000000000000000000000000000000000000000000000000008152600401610247906115fd565b60405180910390fd5b8260008082815260200190815260200160002060050160009054906101000a900460ff166102b3576040517f08c379a00000000000000000000000000000000000000000000000000000000081526004016102aa90611669565b60405180910390fd5b6000808281526020019081526020016000206003015442101561030b576040517f08c379a0000000000000000000000000000000000000000000000000000000008152600401610302906116d5565b60405180910390fd5b60008082815260200190815260200160002060040154421115610363576040517f08c379a000000000000000000000000000000000000000000000000000000000815260040161035a90611741565b60405180910390fd5b600080600086815260200190815260200160002090508060080160003373ffffffffffffffffffffffffffffffffffffffff1673ffffffffffffffffffffffffffffffffffffffff16815260200190815260200160002060009054906101000a900460ff1615610408576040517f08c379a00000000000000000000000000000000000000000000000000000000081526004016103ff906117ad565b60405180910390fd5b8060090154841061044e576040517f08c379a000000000000000000000000000000000000000000000000000000000815260040161044590611819565b60405180910390fd5b80600701600085815260200190815260200160002060030160009054906101000a900460ff166104b3576040517f08c379a00000000000000000000000000000000000000000000000000000000081526004016104aa90611885565b60405180910390fd5b60018160080160003373ffffffffffffffffffffffffffffffffffffffff1673ffffffffffffffffffffffffffffffffffffffff16815260200190815260200160002060006101000a81548160ff0219169083151502179055508060070160008581526020019081526020016000206002016000815480929190610536906118d4565b9190505550806006016000815480929190610550906118d4565b91905055507f2acce567deca3aabf56327adbb4524bd5318936eaefa69e3a5208ffda0cfec098533866040516105889392919061191c565b60405180910390a15050505050565b600080600084815260200190815260200160002060080160008373ffffffffffffffffffffffffffffffffffffffff1673ffffffffffffffffffffffffffffffffffffffff16815260200190815260200160002060009054906101000a900460ff16905092915050565b606080600080600080600088815260200190815260200160002060070160008781526020019081526020016000209050806000018160010182600201548360030160009054906101000a900460ff1683805461065c90611982565b80601f016020809104026020016040519081016040528092919081815260200182805461068890611982565b80156106d55780601f106106aa576101008083540402835291602001916106d5565b820191906000526020600020905b8154815290600101906020018083116106b857829003601f168201915b505050505093508280546106e890611982565b80601f016020809104026020016040519081016040528092919081815260200182805461071490611982565b80156107615780601f1061073657610100808354040283529160200191610761565b820191906000526020600020905b81548152906001019060200180831161074457829003601f168201915b5050505050925094509450945094505092959194509250565b60006020528060005260406000206000915090508060000160009054906101000a900473ffffffffffffffffffffffffffffffffffffffff16908060010180546107c390611982565b80601f01602080910402602001604051908101604052809291908181526020018280546107ef90611982565b801561083c5780601f106108115761010080835404028352916020019161083c565b820191906000526020600020905b81548152906001019060200180831161081f57829003601f168201915b50505050509080600201805461085190611982565b80601f016020809104026020016040519081016040528092919081815260200182805461087d90611982565b80156108ca5780601f1061089f576101008083540402835291602001916108ca565b820191906000526020600020905b8154815290600101906020018083116108ad57829003601f168201915b5050505050908060030154908060040154908060050160009054906101000a900460ff16908060060154908060090154905088565b6000428311610943576040517f08c379a000000000000000000000000000000000000000000000000000000000815260040161093a906119ff565b60405180910390fd5b828211610985576040517f08c379a000000000000000000000000000000000000000000000000000000000815260040161097c90611a91565b60405180910390fd5b60006001600081548092919061099a906118d4565b91905055905060008060008381526020019081526020016000209050338160000160006101000a81548173ffffffffffffffffffffffffffffffffffffffff021916908373ffffffffffffffffffffffffffffffffffffffff16021790555086816001019081610a0a9190611c5d565b5085816002019081610a1c9190611c5d565b5084816003018190555083816004018190555060018160050160006101000a81548160ff021916908315150217905550600081600901819055507f0899cd1399cb5255769838bb5633e6d9fc0b49629382ae5b27bbaebd44d31870823389604051610a8993929190611d2f565b60405180910390a18192505050949350505050565b60015481565b803373ffffffffffffffffffffffffffffffffffffffff1660008083815260200190815260200160002060000160009054906101000a900473ffffffffffffffffffffffffffffffffffffffff1673ffffffffffffffffffffffffffffffffffffffff1614610b48576040517f08c379a0000000000000000000000000000000000000000000000000000000008152600401610b3f90611db9565b60405180910390fd5b816001548110610b8d576040517f08c379a0000000000000000000000000000000000000000000000000000000008152600401610b84906115fd565b60405180910390fd5b60008084815260200190815260200160002060040154421015610be5576040517f08c379a0000000000000000000000000000000000000000000000000000000008152600401610bdc90611e25565b60405180910390fd5b600080600085815260200190815260200160002060050160006101000a81548160ff0219169083151502179055507f562cd572b2ba3b666cd989fc4ca98419ec81e75f04528df9d9d76fdb7807ee7183604051610c42919061150b565b60405180910390a1505050565b60006060806000806000806000806000808b815260200190815260200160002090508060000160009054906101000a900473ffffffffffffffffffffffffffffffffffffffff168160010182600201836003015484600401548560050160009054906101000a900460ff1686600601548760090154868054610cd090611982565b80601f0160208091040260200160405190810160405280929190818152602001828054610cfc90611982565b8015610d495780601f10610d1e57610100808354040283529160200191610d49565b820191906000526020600020905b815481529060010190602001808311610d2c57829003601f168201915b50505050509650858054610d5c90611982565b80601f0160208091040260200160405190810160405280929190818152602001828054610d8890611982565b8015610dd55780601f10610daa57610100808354040283529160200191610dd5565b820191906000526020600020905b815481529060010190602001808311610db857829003601f168201915b505050505095509850985098509850985098509850985050919395975091939597565b823373ffffffffffffffffffffffffffffffffffffffff1660008083815260200190815260200160002060000160009054906101000a900473ffffffffffffffffffffffffffffffffffffffff1673ffffffffffffffffffffffffffffffffffffffff1614610e9c576040517f08c379a0000000000000000000000000000000000000000000000000000000008152600401610e9390611db9565b60405180910390fd5b836001548110610ee1576040517f08c379a0000000000000000000000000000000000000000000000000000000008152600401610ed8906115fd565b60405180910390fd5b600080868152602001908152602001600020600301544210610f38576040517f08c379a0000000000000000000000000000000000000000000000000000000008152600401610f2f90611e91565b60405180910390fd5b60008060008781526020019081526020016000206009016000815480929190610f60906118d4565b91905055905060008060008881526020019081526020016000206007016000838152602001908152602001600020905085816000019081610fa19190611c5d565b5084816001019081610fb39190611c5d565b5060018160030160006101000a81548160ff021916908315150217905550600081600201819055507fed8911b3df733b7d5f75724158e54478ea12e30f49c9d31b5261879f5b76586f87838860405161100e93929190611eb1565b60405180910390a150505050505050565b6000604051905090565b600080fd5b600080fd5b6000819050919050565b61104681611033565b811461105157600080fd5b50565b6000813590506110638161103d565b92915050565b600080604083850312156110805761107f611029565b5b600061108e85828601611054565b925050602061109f85828601611054565b9150509250929050565b600073ffffffffffffffffffffffffffffffffffffffff82169050919050565b60006110d4826110a9565b9050919050565b6110e4816110c9565b81146110ef57600080fd5b50565b600081359050611101816110db565b92915050565b6000806040838503121561111e5761111d611029565b5b600061112c85828601611054565b925050602061113d858286016110f2565b9150509250929050565b60008115159050919050565b61115c81611147565b82525050565b60006020820190506111776000830184611153565b92915050565b600081519050919050565b600082825260208201905092915050565b60005b838110156111b757808201518184015260208101905061119c565b60008484015250505050565b6000601f19601f8301169050919050565b60006111df8261117d565b6111e98185611188565b93506111f9818560208601611199565b611202816111c3565b840191505092915050565b61121681611033565b82525050565b6000608082019050818103600083015261123681876111d4565b9050818103602083015261124a81866111d4565b9050611259604083018561120d565b6112666060830184611153565b95945050505050565b60006020828403121561128557611284611029565b5b600061129384828501611054565b91505092915050565b6112a5816110c9565b82525050565b6000610100820190506112c1600083018b61129c565b81810360208301526112d3818a6111d4565b905081810360408301526112e781896111d4565b90506112f6606083018861120d565b611303608083018761120d565b61131060a0830186611153565b61131d60c083018561120d565b61132a60e083018461120d565b9998505050505050505050565b600080fd5b600080fd5b7f4e487b7100000000000000000000000000000000000000000000000000000000600052604160045260246000fd5b611379826111c3565b810181811067ffffffffffffffff8211171561139857611397611341565b5b80604052505050565b60006113ab61101f565b90506113b78282611370565b919050565b600067ffffffffffffffff8211156113d7576113d6611341565b5b6113e0826111c3565b9050602081019050919050565b82818337600083830152505050565b600061140f61140a846113bc565b6113a1565b90508281526020810184848401111561142b5761142a61133c565b5b6114368482856113ed565b509392505050565b600082601f83011261145357611452611337565b5b81356114638482602086016113fc565b91505092915050565b6000806000806080858703121561148657611485611029565b5b600085013567ffffffffffffffff8111156114a4576114a361102e565b5b6114b08782880161143e565b945050602085013567ffffffffffffffff8111156114d1576114d061102e565b5b6114dd8782880161143e565b93505060406114ee87828801611054565b92505060606114ff87828801611054565b91505092959194509250565b6000602082019050611520600083018461120d565b92915050565b60008060006060848603121561153f5761153e611029565b5b600061154d86828701611054565b935050602084013567ffffffffffffffff81111561156e5761156d61102e565b5b61157a8682870161143e565b925050604084013567ffffffffffffffff81111561159b5761159a61102e565b5b6115a78682870161143e565b9150509250925092565b7f456c656374696f6e20646f6573206e6f74206578697374000000000000000000600082015250565b60006115e7601783611188565b91506115f2826115b1565b602082019050919050565b60006020820190508181036000830152611616816115da565b9050919050565b7f456c656374696f6e206973206e6f742061637469766500000000000000000000600082015250565b6000611653601683611188565b915061165e8261161d565b602082019050919050565b6000602082019050818103600083015261168281611646565b9050919050565b7f456c656374696f6e20686173206e6f7420737461727465640000000000000000600082015250565b60006116bf601883611188565b91506116ca82611689565b602082019050919050565b600060208201905081810360008301526116ee816116b2565b9050919050565b7f456c656374696f6e2068617320656e6465640000000000000000000000000000600082015250565b600061172b601283611188565b9150611736826116f5565b602082019050919050565b6000602082019050818103600083015261175a8161171e565b9050919050565b7f416c726561647920766f74656420696e207468697320656c656374696f6e0000600082015250565b6000611797601e83611188565b91506117a282611761565b602082019050919050565b600060208201905081810360008301526117c68161178a565b9050919050565b7f496e76616c69642063616e646964617465000000000000000000000000000000600082015250565b6000611803601183611188565b915061180e826117cd565b602082019050919050565b60006020820190508181036000830152611832816117f6565b9050919050565b7f43616e646964617465206e6f7420726567697374657265640000000000000000600082015250565b600061186f601883611188565b915061187a82611839565b602082019050919050565b6000602082019050818103600083015261189e81611862565b9050919050565b7f4e487b7100000000000000000000000000000000000000000000000000000000600052601160045260246000fd5b60006118df82611033565b91507fffffffffffffffffffffffffffffffffffffffffffffffffffffffffffffffff8203611911576119106118a5565b5b600182019050919050565b6000606082019050611931600083018661120d565b61193e602083018561129c565b61194b604083018461120d565b949350505050565b7f4e487b7100000000000000000000000000000000000000000000000000000000600052602260045260246000fd5b6000600282049050600182168061199a57607f821691505b6020821081036119ad576119ac611953565b5b50919050565b7f53746172742074696d65206d75737420626520696e2074686520667574757265600082015250565b60006119e9602083611188565b91506119f4826119b3565b602082019050919050565b60006020820190508181036000830152611a18816119dc565b9050919050565b7f456e642074696d65206d7573742062652061667465722073746172742074696d60008201527f6500000000000000000000000000000000000000000000000000000000000000602082015250565b6000611a7b602183611188565b9150611a8682611a1f565b604082019050919050565b60006020820190508181036000830152611aaa81611a6e565b9050919050565b60008190508160005260206000209050919050565b60006020601f8301049050919050565b600082821b905092915050565b600060088302611b137fffffffffffffffffffffffffffffffffffffffffffffffffffffffffffffffff82611ad6565b611b1d8683611ad6565b95508019841693508086168417925050509392505050565b6000819050919050565b6000611b5a611b55611b5084611033565b611b35565b611033565b9050919050565b6000819050919050565b611b7483611b3f565b611b88611b8082611b61565b848454611ae3565b825550505050565b600090565b611b9d611b90565b611ba8818484611b6b565b505050565b5b81811015611bcc57611bc1600082611b95565b600181019050611bae565b5050565b601f821115611c1157611be281611ab1565b611beb84611ac6565b81016020851015611bfa578190505b611c0e611c0685611ac6565b830182611bad565b50505b505050565b600082821c905092915050565b6000611c3460001984600802611c16565b1980831691505092915050565b6000611c4d8383611c23565b9150826002028217905092915050565b611c668261117d565b67ffffffffffffffff811115611c7f57611c7e611341565b5b611c898254611982565b611c94828285611bd0565b600060209050601f831160018114611cc75760008415611cb5578287015190505b611cbf8582611c41565b865550611d27565b601f198416611cd586611ab1565b60005b82811015611cfd57848901518255600182019150602085019450602081019050611cd8565b86831015611d1a5784890151611d16601f891682611c23565b8355505b6001600288020188555050505b505050505050565b6000606082019050611d44600083018661120d565b611d51602083018561129c565b8181036040830152611d6381846111d4565b9050949350505050565b7f4e6f742074686520656c656374696f6e2063726561746f720000000000000000600082015250565b6000611da3601883611188565b9150611dae82611d6d565b602082019050919050565b60006020820190508181036000830152611dd281611d96565b9050919050565b7f456c656374696f6e20706572696f64206e6f74206f7665720000000000000000600082015250565b6000611e0f601883611188565b9150611e1a82611dd9565b602082019050919050565b60006020820190508181036000830152611e3e81611e02565b9050919050565b7f456c656374696f6e2068617320616c7265616479207374617274656400000000600082015250565b6000611e7b601c83611188565b9150611e8682611e45565b602082019050919050565b60006020820190508181036000830152611eaa81611e6e565b9050919050565b6000606082019050611ec6600083018661120d565b611ed3602083018561120d565b8181036040830152611ee581846111d4565b905094935050505056fea2646970667358221220176a6d15fe8735461ad4864de8f13d7337877b5d26c4cb3c73ac4e033704659764736f6c634300081b0033",
  "linkReferences": {},
  "deployedLinkReferences": {}
}